{"abi":[{"type":"constructor","inputs":[],"stateMutability":"nonpayable"},{"type":"function","name":"DOMAIN_SEPARATOR","inputs":[],"outputs":[{"name":"","type":"bytes32","internalType":"bytes32"}],"stateMutability":"view"},{"type":"function","name":"allowance","inputs":[{"name":"owner","type":"address","internalType":"address"},{"name":"spender","type":"address","internalType":"address"}],"outputs":[{"name":"","type":"uint256","internalType":"uint256"}],"stateMutability":"view"},{"type":"function","name":"approve","inputs":[{"name":"spender","type":"address","internalType":"address"},{"name":"value","type":"uint256","internalType":"uint256"}],"outputs":[{"name":"","type":"bool","internalType":"bool"}],"stateMutability":"nonpayable"},{"type":"function","name":"balanceOf","inputs":[{"name":"account","type":"address","internalType":"address"}],"outputs":[{"name":"","type":"uint256","internalType":"uint256"}],"stateMutability":"view"},{"type":"function","name":"decimals","inputs":[],"outputs":[{"name":"","type":"uint8","internalType":"uint8"}],"stateMutability":"view"},{"type":"function","name":"eip712Domain","inputs":[],"outputs":[{"name":"fields","type":"bytes1","internalType":"bytes1"},{"name":"name","type":"string","internalType":"string"},{"name":"version","type":"string","internalType":"string"},{"name":"chainId","type":"uint256","internalType":"uint256"},{"name":"verifyingContract","type":"address","internalType":"address"},{"name":"salt","type":"bytes32","internalType":"bytes32"},{"name":"extensions","type":"uint256[]","internalType":"uint256[]"}],"stateMutability":"view"},{"type":"function","name":"mint","inputs":[{"name":"_to","type":"address","internalType":"address"},{"name":"_amount","type":"uint256","internalType":"uint256"}],"outputs":[],"stateMutability":"nonpayable"},{"type":"function","name":"name","inputs":[],"outputs":[{"name":"","type":"string","internalType":"string"}],"stateMutability":"view"},{"type":"function","name":"nonces","inputs":[{"name":"owner","type":"address","internalType":"address"}],"outputs":[{"name":"","type":"uint256","internalType":"uint256"}],"stateMutability":"view"},{"type":"function","name":"permit","inputs":[{"name":"owner","type":"address","internalType":"address"},{"name":"spender","type":"address","internalType":"address"},{"name":"value","type":"uint256","internalType":"uint256"},{"name":"deadline","type":"uint256","internalType":"uint256"},{"name":"v","type":"uint8","internalType":"uint8"},{"name":"r","type":"bytes32","internalType":"bytes32"},{"name":"s","type":"bytes32","internalType":"bytes32"}],"outputs":[],"stateMutability":"nonpayable"},{"type":"function","name":"symbol","inputs":[],"outputs":[{"name":"","type":"string","internalType":"string"}],"stateMutability":"view"},{"type":"function","name":"totalSupply","inputs":[],"outputs":[{"name":"","type":"uint256","internalType":"uint256"}],"stateMutability":"view"},{"type":"function","name":"transfer","inputs":[{"name":"to","type":"address","internalType":"address"},{"name":"value","type":"uint256","internalType":"uint256"}],"outputs":[{"name":"","type":"bool","internalType":"bool"}],"stateMutability":"nonpayable"},{"type":"function","name":"transferFrom","inputs":[{"name":"from","type":"address","internalType":"address"},{"name":"to","type":"address","internalType":"address"},{"name":"value","type":"uint256","internalType":"uint256"}],"outputs":[{"name":"","type":"bool","internalType":"bool"}],"stateMutability":"nonpayable"},{"type":"event","name":"Approval","inputs":[{"name":"owner","type":"address","indexed":true,"internalType":"address"},{"name":"spender","type":"address","indexed":true,"internalType":"address"},{"name":"value","type":"uint256","indexed":false,"internalType":"uint256"}],"anonymous":false},{"type":"event","name":"EIP712DomainChanged","inputs":[],"anonymous":false},{"type":"event","name":"Transfer","inputs":[{"name":"from","type":"address","indexed":true,"internalType":"address"},{"name":"to","type":"address","indexed":true,"internalType":"address"},{"name":"value","type":"uint256","indexed":false,"internalType":"uint256"}],"anonymous":false},{"type":"error","name":"ECDSAInvalidSignature","inputs":[]},{"type":"error","name":"ECDSAInvalidSignatureLength","inputs":[{"name":"length","type":"uint256","internalType":"uint256"}]},{"type":"error","name":"ECDSAInvalidSignatureS","inputs":[{"name":"s","type":"bytes32","internalType":"bytes32"}]},{"type":"error","name":"ERC20InsufficientAllowance","inputs":[{"name":"spender","type":"address","internalType":"address"},{"name":"allowance","type":"uint256","internalType":"uint256"},{"name":"needed","type":"uint256","internalType":"uint256"}]},{"type":"error","name":"ERC20InsufficientBalance","inputs":[{"name":"sender","type":"address","internalType":"address"},{"name":"balance","type":"uint256","internalType":"uint256"},{"name":"needed","type":"uint256","internalType":"uint256"}]},{"type":"error","name":"ERC20InvalidApprover","inputs":[{"name":"approver","type":"address","internalType":"address"}]},{"type":"error","name":"ERC20InvalidReceiver","inputs":[{"name":"receiver","type":"address","internalType":"address"}]},{"type":"error","name":"ERC20InvalidSender","inputs":[{"name":"sender","type":"address","internalType":"address"}]},{"type":"error","name":"ERC20InvalidSpender","inputs":[{"name":"spender","type":"address","internalType":"address"}]},{"type":"error","name":"ERC2612ExpiredSignature","inputs":[{"name":"deadline","type":"uint256","internalType":"uint256"}]},{"type":"error","name":"ERC2612InvalidSigner","inputs":[{"name":"signer","type":"address","internalType":"address"},{"name":"owner","type":"address","internalType":"address"}]},{"type":"error","name":"InvalidAccountNonce","inputs":[{"name":"account","type":"address","internalType":"address"},{"name":"currentNonce","type":"uint256","internalType":"uint256"}]},{"type":"error","name":"InvalidShortString","inputs":[]},{"type":"error","name":"StringTooLong","inputs":[{"name":"str","type":"string","internalType":"string"}]}],"bytecode":{"object":"0x6101606040818152346103f257610015826103f7565b60088252602091828101674d7945495032363160c01b9283825280519361003b856103f7565b600885528585015280519461004f866103f7565b600586526404d794569760dc1b8187015281519161006c836103f7565b6001808452603160f81b83850190815287516001600160401b0398919291908981116102fe576003908154928484811c941680156103e8575b888510146103d2578190601f94858111610381575b50889085831160011461031f57600092610314575b505060001982841b1c191690841b1781555b8a51918a83116102fe5760049b8c548581811c911680156102f4575b898210146102df57828111610299575b508791841160011461023357938394918492600095610228575b50501b92600019911b1c19161788555b61014086610412565b94610120958652610150856105c2565b96610140978852519020938460e05251902096610100978089524660a0528251938401947f8b73c3c69bb8fe3d512ecc4cf759cc79239f7b179b0ffacaa9a75d522b39400f86528385015260608401524660808401523060a084015260a0835260c08301968388109088111761021357508590525190206080523060c052610ed09384610767853960805184610a3c015260a05184610b08015260c05184610a06015260e05184610a8b01525183610ab1015251826103af015251816103d90152f35b604190634e487b7160e01b6000525260246000fd5b015193503880610127565b9190601f198416928d60005284896000209460005b8b898383106102825750505010610268575b50505050811b018855610137565b01519060f884600019921b161c191690553880808061025a565b868601518955909701969485019488935001610248565b8d600052886000208380870160051c8201928b88106102d6575b0160051c019086905b8281106102ca57505061010d565b600081550186906102bc565b925081926102b3565b60228e634e487b7160e01b6000525260246000fd5b90607f16906100fd565b634e487b7160e01b600052604160045260246000fd5b0151905038806100cf565b90869350601f19831691856000528a6000209260005b8c82821061036b5750508411610353575b505050811b0181556100e1565b015160001983861b60f8161c19169055388080610346565b8385015186558a97909501949384019301610335565b90915083600052886000208580850160051c8201928b86106103c9575b918891869594930160051c01915b8281106103ba5750506100ba565b600081558594508891016103ac565b9250819261039e565b634e487b7160e01b600052602260045260246000fd5b93607f16936100a5565b600080fd5b604081019081106001600160401b038211176102fe57604052565b805160209190828110156104ac575090601f82511161044d578082519201519080831061043e57501790565b82600019910360031b1b161790565b90604051809263305a27a960e01b82528060048301528251908160248401526000935b828510610493575050604492506000838284010152601f80199101168101030190fd5b8481018201518686016044015293810193859350610470565b6001600160401b0381116102fe576005928354926001938481811c911680156105b8575b838210146103d257601f8111610584575b5081601f841160011461051e5750928293918392600094610513575b50501b916000199060031b1c191617905560ff90565b0151925038806104fd565b919083601f1981168760005284600020946000905b8883831061056a5750505010610551575b505050811b01905560ff90565b015160001960f88460031b161c19169055388080610544565b858701518855909601959485019487935090810190610533565b8560005284601f846000209201871c820191601f8601881c015b8281106105ac5750506104e1565b6000815501859061059e565b90607f16906104d0565b80516020908181101561064b5750601f8251116105ec578082519201519080831061043e57501790565b90604051809263305a27a960e01b82528060048301528251908160248401526000935b828510610632575050604492506000838284010152601f80199101168101030190fd5b848101820151868601604401529381019385935061060f565b906001600160401b0382116102fe57600654926001938481811c9116801561075c575b838210146103d257601f8111610725575b5081601f84116001146106bd57509282939183926000946106b2575b50501b916000199060031b1c19161760065560ff90565b01519250388061069b565b919083601f198116600660005284600020946000905b8883831061070b57505050106106f2575b505050811b0160065560ff90565b015160001960f88460031b161c191690553880806106e4565b8587015188559096019594850194879350908101906106d3565b600660005284601f84600020920160051c820191601f860160051c015b82811061075057505061067f565b60008155018590610742565b90607f169061066e56fe608060408181526004918236101561001657600080fd5b600092833560e01c91826306fdde031461074e57508163095ea7b31461072457816318160ddd1461070557816323b872dd1461060e578163313ce567146105f25781633644e515146105ce57816340c10f191461052657816370a08231146104ef5781637ecebe00146104b757816384b0196e1461039757816395d89b41146102a3578163a9059cbb14610272578163d505accf1461010a575063dd62ed3e146100bf57600080fd5b34610106578060031936011261010657806020926100db610866565b6100e3610881565b6001600160a01b0391821683526001865283832091168252845220549051908152f35b5080fd5b839150346101065760e036600319011261010657610126610866565b61012e610881565b906044359260643560843560ff8116810361026e578142116102575760018060a01b0390818516928389526007602052898920908154916001830190558a519060208201927f6e71edae12b1b97f4d1f60370fef10105fa2faae0126114a169c64845d6126c98452868d840152858a1660608401528a608084015260a083015260c082015260c0815260e0810181811067ffffffffffffffff821117610244578b5251902061021291610209916101e3610a03565b908c519161190160f01b83526002830152602282015260c43591604260a4359220610d85565b90929192610e15565b168181036102295786610226878787610b2e565b80f35b87516325c0072360e11b815292830152602482015260449150fd5b634e487b7160e01b8b526041875260248bfd5b875163313c898160e11b8152808401839052602490fd5b8680fd5b50503461010657806003193601126101065760209061029c610292610866565b6024359033610925565b5160018152f35b9190503461039357826003193601126103935780518381949084546102c781610897565b918285526020966001928860018216918260001461036957505060011461030e575b858861030a896102fb848a0385610903565b51928284938452830190610826565b0390f35b815286935091907f8a35acfbc15ff81a39ae7d344fd709f28e8600b4aa8c65c6b64bfe7fe36bd19b5b82841061035157505050820101816102fb61030a386102e9565b8054848a018601528895508794909301928101610337565b60ff19168882015294151560051b870190940194508593506102fb925061030a91503890506102e9565b8280fd5b919050346103935782600319360112610393576103d37f0000000000000000000000000000000000000000000000000000000000000000610bc1565b926103fd7f0000000000000000000000000000000000000000000000000000000000000000610cc5565b90825192602092602085019585871067ffffffffffffffff8811176104a4575092602061045a83889661044d998b9996528686528151998a99600f60f81b8b5260e0868c015260e08b0190610826565b91898303908a0152610826565b924660608801523060808801528460a088015286840360c088015251928381520193925b82811061048d57505050500390f35b83518552869550938101939281019260010161047e565b634e487b7160e01b845260419052602483fd5b5050346101065760203660031901126101065760209181906001600160a01b036104df610866565b1681526007845220549051908152f35b5050346101065760203660031901126101065760209181906001600160a01b03610517610866565b16815280845220549051908152f35b91905034610393578060031936011261039357610541610866565b6001600160a01b031691602435919083156105b957600254908382018092116105a6575084927fddf252ad1be2c89b69c2b068fc378daa952ba7f163c4a11628f55a4df523b3ef9260209260025585855284835280852082815401905551908152a380f35b634e487b7160e01b865260119052602485fd5b84602492519163ec442f0560e01b8352820152fd5b5050346101065781600319360112610106576020906105eb610a03565b9051908152f35b5050346101065781600319360112610106576020905160128152f35b905082346107025760603660031901126107025761062a610866565b610632610881565b916044359360018060a01b03831680835260016020528683203384526020528683205491600019830361066e575b60208861029c898989610925565b8683106106d65781156106bf5733156106a85750825260016020908152868320338452815291869020908590039055829061029c87610660565b8751634a1406b160e11b8152908101849052602490fd5b875163e602df0560e01b8152908101849052602490fd5b8751637dc7a0d960e11b8152339181019182526020820193909352604081018790528291506060010390fd5b80fd5b5050346101065781600319360112610106576020906002549051908152f35b50503461010657806003193601126101065760209061029c610744610866565b6024359033610b2e565b848434610106578160031936011261010657828260035461076e81610897565b90818452602095600191876001821691826000146107ff5750506001146107a3575b50505061030a92916102fb910385610903565b9190869350600383527fc2575a0e9e593c00f959f8c92f12db2869c3395a3b0502d05e2516446f71f85b5b8284106107e757505050820101816102fb61030a610790565b8054848a0186015288955087949093019281016107ce565b60ff19168782015293151560051b860190930193508492506102fb915061030a9050610790565b919082519283825260005b848110610852575050826000602080949584010152601f8019910116010190565b602081830181015184830182015201610831565b600435906001600160a01b038216820361087c57565b600080fd5b602435906001600160a01b038216820361087c57565b90600182811c921680156108c7575b60208310146108b157565b634e487b7160e01b600052602260045260246000fd5b91607f16916108a6565b6040810190811067ffffffffffffffff8211176108ed57604052565b634e487b7160e01b600052604160045260246000fd5b90601f8019910116810190811067ffffffffffffffff8211176108ed57604052565b916001600160a01b038084169283156109ea57169283156109d1576000908382528160205260408220549083821061099f575091604082827fddf252ad1be2c89b69c2b068fc378daa952ba7f163c4a11628f55a4df523b3ef958760209652828652038282205586815220818154019055604051908152a3565b60405163391434e360e21b81526001600160a01b03919091166004820152602481019190915260448101839052606490fd5b60405163ec442f0560e01b815260006004820152602490fd5b604051634b637e8f60e11b815260006004820152602490fd5b307f00000000000000000000000000000000000000000000000000000000000000006001600160a01b03161480610b05575b15610a5e577f000000000000000000000000000000000000000000000000000000000000000090565b60405160208101907f8b73c3c69bb8fe3d512ecc4cf759cc79239f7b179b0ffacaa9a75d522b39400f82527f000000000000000000000000000000000000000000000000000000000000000060408201527f000000000000000000000000000000000000000000000000000000000000000060608201524660808201523060a082015260a0815260c0810181811067ffffffffffffffff8211176108ed5760405251902090565b507f00000000000000000000000000000000000000000000000000000000000000004614610a35565b6001600160a01b03908116918215610ba85716918215610b8f5760207f8c5be1e5ebec7d5bd14f71427d1e84f3dd0314c0f7b2291e5b200ac8c7c3b925918360005260018252604060002085600052825280604060002055604051908152a3565b604051634a1406b160e11b815260006004820152602490fd5b60405163e602df0560e01b815260006004820152602490fd5b60ff8114610bff5760ff811690601f8211610bed5760405191610be3836108d1565b8252602082015290565b604051632cd44ac360e21b8152600490fd5b50604051600554816000610c1283610897565b80835292602090600190818116908115610ca15750600114610c40575b5050610c3d92500382610903565b90565b91509260056000527f036b6384b5eca791c62761152d0c79bb0604c104a5fb6f4eb0703f3154bb3db0936000925b828410610c895750610c3d9450505081016020013880610c2f565b85548785018301529485019486945092810192610c6e565b91505060209250610c3d94915060ff191682840152151560051b8201013880610c2f565b60ff8114610ce75760ff811690601f8211610bed5760405191610be3836108d1565b50604051600654816000610cfa83610897565b80835292602090600190818116908115610ca15750600114610d24575050610c3d92500382610903565b91509260066000527ff652222313e28459528d920b65115c16c04f3efc82aaedc97be59f3f377c0d3f936000925b828410610d6d5750610c3d9450505081016020013880610c2f565b85548785018301529485019486945092810192610d52565b91907f7fffffffffffffffffffffffffffffff5d576e7357a4501ddfe92f46681b20a08411610e0957926020929160ff608095604051948552168484015260408301526060820152600092839182805260015afa15610dfd5780516001600160a01b03811615610df457918190565b50809160019190565b604051903d90823e3d90fd5b50505060009160039190565b6004811015610e845780610e27575050565b60018103610e415760405163f645eedf60e01b8152600490fd5b60028103610e625760405163fce698f760e01b815260048101839052602490fd5b600314610e6c5750565b602490604051906335e2f38360e21b82526004820152fd5b634e487b7160e01b600052602160045260246000fdfea264697066735822122029066b09fa074257ee3e20fbc054a2fdfca5026c44c2fb314dfaef2e1ecccecb64736f6c63430008190033","linkReferences":{}},"methodIdentifiers":{"DOMAIN_SEPARATOR()":"3644e515","allowance(address,address)":"dd62ed3e","approve(address,uint256)":"095ea7b3","balanceOf(address)":"70a08231","decimals()":"313ce567","eip712Domain()":"84b0196e","mint(address,uint256)":"40c10f19","name()":"06fdde03","nonces(address)":"7ecebe00","permit(address,address,uint256,uint256,uint8,bytes32,bytes32)":"d505accf","symbol()":"95d89b41","totalSupply()":"18160ddd","transfer(address,uint256)":"a9059cbb","transferFrom(address,address,uint256)":"23b872dd"},"id":19}