{"abi":[{"type":"constructor","inputs":[{"name":"_token","type":"address","internalType":"address"},{"name":"_nft","type":"address","internalType":"address"}],"stateMutability":"nonpayable"},{"type":"function","name":"admin","inputs":[],"outputs":[{"name":"","type":"address","internalType":"address"}],"stateMutability":"view"},{"type":"function","name":"list","inputs":[{"name":"tokenId","type":"uint256","internalType":"uint256"},{"name":"_price","type":"uint256","internalType":"uint256"}],"outputs":[],"stateMutability":"nonpayable"},{"type":"function","name":"lister","inputs":[{"name":"tokenId","type":"uint256","internalType":"uint256"}],"outputs":[{"name":"","type":"address","internalType":"address"}],"stateMutability":"view"},{"type":"function","name":"nft","inputs":[],"outputs":[{"name":"","type":"address","internalType":"contract IERC721"}],"stateMutability":"view"},{"type":"function","name":"nonces","inputs":[{"name":"owner","type":"address","internalType":"address"}],"outputs":[{"name":"","type":"uint256","internalType":"uint256"}],"stateMutability":"view"},{"type":"function","name":"onERC721Received","inputs":[{"name":"operator","type":"address","internalType":"address"},{"name":"from","type":"address","internalType":"address"},{"name":"tokenId","type":"uint256","internalType":"uint256"},{"name":"data","type":"bytes","internalType":"bytes"}],"outputs":[{"name":"","type":"bytes4","internalType":"bytes4"}],"stateMutability":"nonpayable"},{"type":"function","name":"permitBuy","inputs":[{"name":"nonce","type":"uint256","internalType":"uint256"},{"name":"signature","type":"bytes","internalType":"bytes"},{"name":"tokenId","type":"uint256","internalType":"uint256"},{"name":"amount","type":"uint256","internalType":"uint256"}],"outputs":[],"stateMutability":"nonpayable"},{"type":"function","name":"price","inputs":[{"name":"tokenId","type":"uint256","internalType":"uint256"}],"outputs":[{"name":"","type":"uint256","internalType":"uint256"}],"stateMutability":"view"},{"type":"function","name":"token","inputs":[],"outputs":[{"name":"","type":"address","internalType":"contract IERC20"}],"stateMutability":"view"},{"type":"function","name":"tokenIdToPrice","inputs":[{"name":"","type":"uint256","internalType":"uint256"}],"outputs":[{"name":"","type":"uint256","internalType":"uint256"}],"stateMutability":"view"},{"type":"function","name":"tokenIdToSeller","inputs":[{"name":"","type":"uint256","internalType":"uint256"}],"outputs":[{"name":"","type":"address","internalType":"address"}],"stateMutability":"view"},{"type":"error","name":"ECDSAInvalidSignature","inputs":[]},{"type":"error","name":"ECDSAInvalidSignatureLength","inputs":[{"name":"length","type":"uint256","internalType":"uint256"}]},{"type":"error","name":"ECDSAInvalidSignatureS","inputs":[{"name":"s","type":"bytes32","internalType":"bytes32"}]},{"type":"error","name":"InvalidAccountNonce","inputs":[{"name":"account","type":"address","internalType":"address"},{"name":"currentNonce","type":"uint256","internalType":"uint256"}]}],"bytecode":{"object":"0x60c0346100ab57601f610ae938819003918201601f19168301916001600160401b038311848410176100b05780849260409485528339810103126100ab57610052602061004b836100c6565b92016100c6565b6001600160a01b039182166080521660a052600380546001600160a01b03191633179055604051610a0e90816100db823960805181818160b10152610531015260a0518181816101d5015281816102fd01526104720152f35b600080fd5b634e487b7160e01b600052604160045260246000fd5b51906001600160a01b03821682036100ab5756fe608060408181526004918236101561001657600080fd5b600092833560e01c918263150b7a021461073a5750816326a49e371461010c578163339b18bd1461032c57816347ccca02146102e857816350fd7367146101a257816377da40ce146101385781637ecebe001461016b578163e2ec836014610138578163f4812eb91461010c57508063f851a440146100e45763fc0c546a1461009e57600080fd5b346100e057816003193601126100e057517f00000000000000000000000000000000000000000000000000000000000000006001600160a01b03168152602090f35b5080fd5b50346100e057816003193601126100e05760035490516001600160a01b039091168152602090f35b9050346101345760203660031901126101345760209282913581526001845220549051908152f35b8280fd5b9050346101345760203660031901126101345735825260026020908152918190205490516001600160a01b039091168152f35b5050346100e05760203660031901126100e05760209181906001600160a01b0361019361079b565b16815280845220549051908152f35b90503461013457816003193601126101345781516331a9108f60e11b815281358282018190529184916001600160a01b037f000000000000000000000000000000000000000000000000000000000000000081169190602082602481865afa9081156102de5761021c9286926102ad575b5016331461084f565b803b15610134578451632142170760e11b81523392810192835230602084015260408301859052918391839182908490829060600103925af180156102a35761028f575b505260016020526024358183205560026020528120336bffffffffffffffffffffffff60a01b82541617905580f35b610298906107e4565b610134578238610260565b84513d84823e3d90fd5b6102d091925060203d6020116102d7575b6102c8818361080e565b810190610830565b9038610213565b503d6102be565b87513d87823e3d90fd5b5050346100e057816003193601126100e057517f00000000000000000000000000000000000000000000000000000000000000006001600160a01b03168152602090f35b8383346100e05760803660031901126100e0578235602480359467ffffffffffffffff958681116106205761036490369083016107b6565b3360009081526020819052604090208054600181019091559197604435959290919080840361071d575086516020998a8201943360601b865260348301526034825260608201948286108587111761070b57858a52825190207f19457468657265756d205369676e6564204d6573736167653a0a3332000000008b52601c52603c8a209383116106f957610401601f8401601f19168c018661080e565b82855236838201116106f5576080838361043197958d948461042899970137010152610887565b909291926108c3565b6003546001600160a01b0391908216908216036106c2573360009081526020819052604090208054600101905584516331a9108f60e11b81528281018590527f00000000000000000000000000000000000000000000000000000000000000008216939088818381885afa9081156106b857906104b991899161069b575b508316301461084f565b848752600288528186882054161561066f5784875260018852858720546064351061063557508386526002875284862054600188528587205486516323b872dd60e01b8152338582019081529284166001600160a01b03166020840152604083019190915291889183919082908a90829060600103927f0000000000000000000000000000000000000000000000000000000000000000165af1801561062b576105f4575b50813b156105f0578351632142170760e11b8152309181019182523360208301526040820184905291859183919082908490829060600103925af180156105e3576105cf575b5082936001918452600281528284206bffffffffffffffffffffffff60a01b81541690555281205580f35b926105dc600192946107e4565b92906105a4565b50505051903d90823e3d90fd5b8480fd5b8681813d8311610624575b610609818361080e565b810103126106205751801515036105f0578661055e565b8580fd5b503d6105ff565b85513d88823e3d90fd5b8260166064928a89519362461bcd60e51b855284015282015275616d6f756e74206c657373207468616e20707269636560501b6044820152fd5b8260086064928a89519362461bcd60e51b8552840152820152671b9bdd081b1a5cdd60c21b6044820152fd5b6106b291508a3d8c116102d7576102c8818361080e565b8a6104af565b87513d8a823e3d90fd5b50600f6064928786519362461bcd60e51b85528401528201526e6572726f72207369676e697475726560881b6044820152fd5b8980fd5b634e487b7160e01b8a5260418652868afd5b634e487b7160e01b8b5260418752878bfd5b87516301d4b62360e61b8152338187015280870191909152604490fd5b84346107985760803660031901126107985761075461079b565b506024356001600160a01b03811603610798576064359067ffffffffffffffff8211610798575060209261078a913691016107b6565b5050630a85bd0160e11b8152f35b80fd5b600435906001600160a01b03821682036107b157565b600080fd5b9181601f840112156107b15782359167ffffffffffffffff83116107b157602083818601950101116107b157565b67ffffffffffffffff81116107f857604052565b634e487b7160e01b600052604160045260246000fd5b90601f8019910116810190811067ffffffffffffffff8211176107f857604052565b908160209103126107b157516001600160a01b03811681036107b15790565b1561085657565b60405162461bcd60e51b81526020600482015260096024820152683737ba1037bbb732b960b91b6044820152606490fd5b81519190604183036108b8576108b192506020820151906060604084015193015160001a90610948565b9192909190565b505060009160029190565b600481101561093257806108d5575050565b600181036108ef5760405163f645eedf60e01b8152600490fd5b600281036109105760405163fce698f760e01b815260048101839052602490fd5b60031461091a5750565b602490604051906335e2f38360e21b82526004820152fd5b634e487b7160e01b600052602160045260246000fd5b91907f7fffffffffffffffffffffffffffffff5d576e7357a4501ddfe92f46681b20a084116109cc57926020929160ff608095604051948552168484015260408301526060820152600092839182805260015afa156109c05780516001600160a01b038116156109b757918190565b50809160019190565b604051903d90823e3d90fd5b5050506000916003919056fea26469706673582212203af7e861461ce56d39b812098e0598e8420d74640f279e8cd372328bed761c0a64736f6c63430008190033","linkReferences":{}},"methodIdentifiers":{"admin()":"f851a440","list(uint256,uint256)":"50fd7367","lister(uint256)":"77da40ce","nft()":"47ccca02","nonces(address)":"7ecebe00","onERC721Received(address,address,uint256,bytes)":"150b7a02","permitBuy(uint256,bytes,uint256,uint256)":"339b18bd","price(uint256)":"26a49e37","token()":"fc0c546a","tokenIdToPrice(uint256)":"f4812eb9","tokenIdToSeller(uint256)":"e2ec8360"},"id":20}