{"abi":[{"type":"constructor","inputs":[{"name":"addr_","type":"address","internalType":"address"}],"stateMutability":"nonpayable"},{"type":"function","name":"balanceOf","inputs":[{"name":"user","type":"address","internalType":"address"}],"outputs":[{"name":"","type":"uint256","internalType":"uint256"}],"stateMutability":"view"},{"type":"function","name":"erc20token","inputs":[],"outputs":[{"name":"","type":"address","internalType":"address"}],"stateMutability":"view"},{"type":"function","name":"permitDeposit","inputs":[{"name":"owner","type":"address","internalType":"address"},{"name":"spender","type":"address","internalType":"address"},{"name":"amount","type":"uint256","internalType":"uint256"},{"name":"deadline","type":"uint256","internalType":"uint256"},{"name":"v","type":"uint8","internalType":"uint8"},{"name":"r","type":"bytes32","internalType":"bytes32"},{"name":"s","type":"bytes32","internalType":"bytes32"}],"outputs":[],"stateMutability":"nonpayable"},{"type":"function","name":"withdraw","inputs":[{"name":"amount","type":"uint256","internalType":"uint256"}],"outputs":[],"stateMutability":"nonpayable"}],"bytecode":{"object":"0x608034607057601f6103f638819003918201601f19168301916001600160401b03831184841017607557808492602094604052833981010312607057516001600160a01b03811690819003607057600180546001600160a01b03191691909117905560405161036a908161008c8239f35b600080fd5b634e487b7160e01b600052604160045260246000fdfe6080604081815260048036101561001557600080fd5b600092833560e01c9081631dcea427146102a4575080632e1a7d4d1461020c57806370a08231146101d5576379c939701461004f57600080fd5b346101c95760e03660031901126101c9576100686102c9565b916024356001600160a01b03818116918290036101d15760443594866084359160ff83168093036101cd578360015416803b156101c95784918360e4928951968795869463d505accf60e01b865216998a8d86015260248501528c60448501526064356064850152608484015260a43560a484015260c43560c48401525af180156101bf57610192575b50602086916001541660648551809481936323b872dd60e01b8352878a8401523060248401528a60448401525af1801561018857610159575b50845283602052832090815492830180931161014657505580f35b634e487b7160e01b845260119052602483fd5b61017a9060203d602011610181575b61017281836102e4565b81019061031c565b503861012b565b503d610168565b83513d88823e3d90fd5b9567ffffffffffffffff87116101ac5795835260206100f2565b634e487b7160e01b815260418552602490fd5b84513d89823e3d90fd5b8280fd5b5080fd5b8580fd5b5050346101cd5760203660031901126101cd5760209181906001600160a01b036101fd6102c9565b16815280845220549051908152f35b50346101c95760203660031901126101c957600154825163a9059cbb60e01b8152338184015282356024820181905293916020908290604490829089906001600160a01b03165af1801561029a5761027b575b5033845283602052832090815492830392831161014657505580f35b6102939060203d6020116101815761017281836102e4565b503861025f565b82513d87823e3d90fd5b8490346101cd57816003193601126101cd576001546001600160a01b03168152602090f35b600435906001600160a01b03821682036102df57565b600080fd5b90601f8019910116810190811067ffffffffffffffff82111761030657604052565b634e487b7160e01b600052604160045260246000fd5b908160209103126102df575180151581036102df579056fea2646970667358221220bb3016954629f1e3cbba4af373667fb1e7d6f9a99cedb9be6eab3facf76a4f9264736f6c63430008190033","linkReferences":{}},"methodIdentifiers":{"balanceOf(address)":"70a08231","erc20token()":"1dcea427","permitDeposit(address,address,uint256,uint256,uint8,bytes32,bytes32)":"79c93970","withdraw(uint256)":"2e1a7d4d"},"id":21}